:020000042000DA
:1000000000980020A5040020AD040020C5040020B5
:1000100000000000000000000000000000000000E0
:10002000000000000000000000000000DD040020CF
:100030000000000000000000F5040020F70400208C
:10004000B72E0020952F00200D310300832F0020B4
:10005000192F00208D310300A72F0020B52F00207D
:10006000F90400207D1F0020F52F0020AD31030092
:10007000578102009B290020F9040020F904002088
:10008000F9040020F9040020F9040020371F0020A3
:100090003B1F00203F1F0020431F0020471F002060
:020000042000DA
:1001600032000000550700206B2B00203B3500209B
:10017000000000000000000063800200BD8002005B
:10018000450B0020FB80020019810200358102002E
:100190005D810200152D0020C10B0020310B0020D5
:1001A0003B0B002000000000000000003F000000AA
:1001B000F48B002000040000740B080048010000CC
:1001C0006807080000040000C80C080020050000B3
:1001D000000000002000000048000000580000005F
:1001E0006800000004010000160100002801000062
:1001F0002E010000202A00008E2E000001000000C9
:1002000088130000F52B0020E9600200FD93020036
:10021000E113002019280300A574020061050020E5
:1002200003000000D52002009935002004000000E2
:10023000D74902000F490200AB0C00206391020075
:10024000B7910200BF910200078202007182020092
:100250003A6D0020AD8302009384020041850200C4
:1002600015860200378602005F860200758602004E
:10027000F9870200258902005D8A0200D38C020002
:10028000098D02000F900200438D0200278E0200AC
:10029000F98E0200478F0200A70A0020D58F0200C6
:1002A00049510200775102002F5202001000000055
:1002B00020030000803E000000000000000000005D
:020000042000DA
:1002C000504600030003983A6400F401B80B000C98
:1002D000B80B120030003000CD009A01120024004B
:1002E00030006400B0001800280012001200D0078F
:1002F0000000FFFF00000000000000000000000000
:100300001F00000244413134353833000000000042
:1003100000000000000000000000000000000000DD
:0403200000000000D9
:020000042000DA
:10034000FFFF010000C201000000000000000000EB
:100350000000F40101000118000405030A18F5FE6D
:1003600011072F2A93A6BDD84152AC0B10992EC667
:10037000FEED000000000000000000000000000092
:10038000000000000000000000000000000000006D
:1003900000000000000000000000474C4F32000049
:1003A000000000000000000000000000000000004D
:1003B000000000000000000000000000000000003D
:1003C000000000000000000000000000000000002D
:1003D0000000000000000000030000CAEA80D0070F
:0403E000064064323D
:020000042000DA
:100440000348854606F0A6F800480047C72002008A
:10045000009800200F4906200880FF200E49013037
:1004600008600E4988683E2290432E308860002242
:10047000052000070280018A0F231B021943018215
:1004800001210748C90404C1401E0028FBDA62B6F6
:10049000704700000034005080E100E0003300505D
:1004A000FF0B00001548804715480047042071469F
:1004B000084203D0EFF3098012490847EFF30880A0
:1004C0001049084704207146084203D0EFF3098021
:1004D0000D490847EFF308800B490847042071468F
:1004E000084203D0EFF3098008490847EFF308807A
:1004F00006490847FEE7FEE7FEE700005504002036
:10050000410400202905002011050020A10E002033
:100510000349C8200880034908204880FEE70000FE
:10052000003100500033005005200007018A0422EA
:1005300011430182018A0222114301820189402272
:1005400011430181054A01211160418A0122890874
:100550008900D203114341827047000080E200E02D
:1005600070B516460C460546012802D00C2D26D142
:100570000DE006226F49704806F01EF800281ED0D4
:1005800006226D49304606F01DF8062012E06B4D3C
:1005900029680878C00610D52078202803D20020CA
:1005A0002070042070BD0A7E30463A3106F00AF809
:1005B0002868007E2070002070BD012070BD32468A
:1005C0002146284606F004F870BD70B55C485D49C8
:1005D000C405228880252A4322805B4A53891B0751
:1005E00001D4401EFAD2594A012010600622524816
:1005F00005F0E8FF2088A843208070BD38B501F0E1
:10060000A5FF02F037F80120032200900023120218
:100610000321022001F047FC002401256D0223463E
:100620002A4621460220009401F03DFC00232A4680
:1006300009210220009401F036FC00232A460421FF
:100640000220009401F02FFC38BD7FB50120032566
:100650002D02009008232A460321022001F023FCEA
:10066000002407232A4621460220009401F01BFCA7
:1006700006232A4609210220009401F014FC0523D8
:10068000002204210220009401F00DFC02216846A2
:100690000173032141730023009401941A46194603
:1006A00003A8029401F090FFFF210131480201F0FC
:1006B00013FE01F057FF7FBD30B500240520000771
:1006C000018A87B0022291430182818A0907FCD501
:1006D000418A202211434182FFF7B7FF1821684663
:1006E00005F07CFF1F2118220903684601F071FE06
:1006F00068460078702803D068464078522814D1A4
:1007000003A806221249054605F056FF00280CD022
:1007100006220849284605F04FFF002805D006228A
:100720002946054805F04EFF0124FFF767FF2046E4
:1007300007B030BD383E030090810020C00608009D
:10074000A0860100D47F04002000005000800040FB
:10075000346D002008B500F040FA05240025240778
:10076000C826684F09E004216846009505F03CFF63
:10077000002817D000F0A5F914E02089000611D553
:1007800001208007006B00040CD405F033FFC00784
:1007900008D1042005F034FF009005F037FF0098E1
:1007A0000028E0D172B602F073FC042806D00228BB
:1007B0000BD0032809D0012816D016E05248007843
:1007C000012801D0032000E0022000F011F8A08AE7
:1007D000800602D54D490820088030BF4C48016989
:1007E00004229143016100E030BF62B63E80C4E75D
:1007F000F8B504466846052504702D07288A0421AB
:10080000084328824348444FC0690126012811D972
:10081000032C18D105F000FF002814D005F002FFCA
:10082000002810D0032005F003FF00280BD0022081
:10083000387009E0032C06D1032005F0F9FE0028EA
:1008400001D03E7000E0022468460470204600F0AB
:1008500023F800203149022C087001D0032C1AD152
:100860002F494A88FF2301339A434A806A882D4BD7
:100870001A804A8832434A8000900099491C0091AE
:100880001429FADB698989088900491C6981698909
:100890004906FCD56880F8BD10B5022801D00328B0
:1008A00028D11B490B69042213430B610521090759
:1008B0004B8A2024A3434B820B8A022423430B82BE
:1008C00010230228488A16D0904348827F22088845
:1008D00092018024204308800020401CC0B20A28D6
:1008E000FBD3488A184348820F48521E4261088849
:1008F000A043088010BD10434882488A984348822C
:1009000010BD0000003100505402080000330050B8
:1009100000ED00E0E0010020C40608000582002090
:100920002000005006820020008000407047000038
:1009300025480178002902D0802141707047234961
:10094000002008702249C87070471F4801780029AC
:1009500002D08121417070471C49012008701C4958
:10096000C870704718480178002902D08221417070
:10097000704716490220087015490120C870704759
:10098000002804D0012803D0022802D1EAE7CFE7EB
:10099000DBE770470C48C07870470020EFF3108108
:1009A000012282F31088052212071289120605D44B
:1009B0000848028901231A4302811846002900D001
:1009C000012181F3108870479781002054020800AC
:1009D000C60608000033005070B5052000070189E5
:1009E00030229143018101898022114301810189D3
:1009F00089088900491C0181018908231943018163
:100A0000AF490C8814430C80448A9C434482058976
:100A1000402425430581058A0426B5430582858A3D
:100A2000AD07FCD5A74E002575600E8801252E4325
:100A30000E804D89AE05A44D0E8801D52E4300E0F1
:100A4000AE430E800D887826B54328350D800D887D
:100A5000062635430D80458A1D4345820B88934306
:100A60000B800289A24302814889800503D59449FD
:100A7000052060318880012080070168821591433C
:100A80000160924801683F22520291434214891842
:100A90000160016802031143016070BD10B58C480C
:100AA00005F0CCFD10BD70B5854C6088C006050F03
:100AB00005F0CAFD61881E2291436A0011436180DE
:100AC00070BD70B583490120C863C86B0028FCD194
:100AD00001208007C169804800220368994200D242
:100AE0000260784C012663787C4D002B04D0627044
:100AF000016005F0AFFD11E0026819238A1ADB01DD
:100B00009A4214D3016005F0A5FD2988884201D9D5
:100B1000411A00E0091A89B2182908D32880012057
:100B200005F09EFD05F0A2FD002800D1667070BDA5
:100B300008B505F0A1FD009008BD08B505F0A2FDBF
:100B4000009008BD08B5664901204A695206D20FD7
:100B500013D04A699206D20F0FD000220A61009288
:100B6000FF225F32009B5B1C00939342FAD34969DA
:100B7000C907C90F02D005F08BFD002008BD1FB5C5
:100B8000684601F02AFB009805F088FD1FBD554B13
:100B90000020197800290DD04E490122CA63CA6B82
:100BA000002AFCD101218907C9694F4A1268914284
:100BB00001D2012070470021197070470020704752
:100BC00010B54A4900200860FFF768FF0120800740
:100BD000016B49004908016310BDF8B50120414986
:100BE000434C0870C82626800025658041480827A8
:100BF000478005F059FD01F035F90D20790180019C
:100C000005F058FDFFF758FD002801D1FFF7DDFC86
:100C100004F0CEFB012005F041FD01F009FFFFF7D4
:100C2000DBFE042000F045F8072000F042F80A201F
:100C300000F03FF8062000F03CF80B2000F039F8F7
:100C4000012000F036F8022000F033F8002000F018
:100C500030F82948006805F033FD00F0A2F800F0F4
:100C6000DBFF00F0CAF901F080F80120800701687D
:100C7000821511430160FFF782FFFFF759FE03F071
:100C800010FB04F0F1FFFFF79BFF05200007C58272
:100C90000B494888E0229043A0304880012005F0AD
:100CA00015FD268013484780F8BD10B505F014FDEA
:100CB00010BDC106C90E0120884010490860704768
:100CC000200000509C810020001000000002004025
:100CD000E2040000C00000407C0408007804080022
:100CE00000100050968100205C7400208C030800E6
:100CF00000310050003300500490002080E200E0FA
:100D0000FEB5784D019117461E46002400902946F5
:100D100005F0E8FC050005D033463A4601990098F5
:100D2000A84704462046FEBDFFB581B01F460E46CB
:100D30004D780C78002005F0DBFC042824D0002836
:100D40001DD121E06848816E2E20604309188888F3
:100D50000207120F130005F0D1FC070505050F056A
:100D60000F050F008204920E062A05D27278012A1E
:100D700012D0072210438880641C6407640F284641
:100D80006D1EEDB20028DDD13B463146039A019835
:100D900005F0BAFC05B0F0BD204605F0BBFC002014
:100DA000F8E770B551480378021D0021504D07E067
:100DB000CC00165D002E01D12418A560491CC9B2D3
:100DC0009942F5D370BD028908894A49101A80B248
:100DD000884201D90120704700207047FFB586780E
:100DE0000446300281B00E30009005F081FC0028EE
:100DF00001D0FF2652E00021442005F091FC3E4F37
:100E0000B5007851442105F0E9FB0121009805F077
:100E10008DFC79590298888079596088C880785902
:100E200022792030417CD20749084900D20F114372
:100E3000417478590622A11D3B3005F0C3FB785957
:100E4000617940304170785906223430039905F0B9
:100E5000B9FB795904982031887602980D281DD065
:100E6000264810230088009A81B2254805F064FCCA
:100E70000546608828806079687228460622A11D90
:100E80000A3005F09FFBA0896880E089A880208A4D
:100E9000E880A07C2872284605F054FC304679E7AB
:100EA00081692039897F082905D2114A89001032C9
:100EB000515881617047FEE70D4A124930320020D7
:100EC00008CA401C08C11028FADB01200E49C006E0
:100ED00008600E49CA691202120ACA610A498039B9
:100EE0000860704784430300D80208000406080025
:100EF0006C6D002030750000540508006001002072
:100F0000013800001084004080E100E000ED00E0C6
:100F100070B516460D46104605F0EAFB00286AD06B
:100F2000340A304605F0E4FB012812D0A87A1E28C6
:100F300011D029460A310E2846D019DC801E030044
:100F400005F0DCFB0B255929592D59315939593EEA
:100F50005900022070BD3146314805F0F9FB0021EF
:100F6000204605F0FBFB0221304605F0DFFB42E0A6
:100F700018283DD006DC102819D012282CD01628AD
:100F800039D131E0522823D0D22834D128E020466C
:100F900005F0EAFB2FE0204605F0ECFB2BE02046B5
:100FA00005F0EEFB27E0204605F0F0FB23E02046AD
:100FB00005F0F2FB1FE01B4A2046126890471AE03A
:100FC000204605F0EFFB16E0204605F0F1FB12E0AD
:100FD000204605F0F3FB0EE0204605F0F5FB0AE0A5
:100FE000204605F0F7FB06E0204605F0F9FB02E09D
:100FF000204605F0FBFB002070BD70B50A48037861
:10100000021D0021094D07E0CC00165D0A2E01D11A
:101010002418A560491CC9B29942F5D370BD0000DF
:1010200001280000506D0020040608003C6E0020DE
:10103000F7B507461646019805F0DEFB0546C4885D
:10104000384605F0DFFB401E844200D2204684B2C1
:1010500022460B21384605F0DBFB0746002E05D063
:1010600033460A21019A05F0D9FBFEBD29467C8052
:1010700022460831381D05F0A5FA384605F0D4FBA4
:10108000FEBDF8B50646002000900C464A88014691
:101090006B46304605F0CEFB020001D061881EE0B1
:1010A000608805F0CDFB002817D005890120EAB241
:1010B000002105F0CBFB0C4B0CCB10401940084332
:1010C0000BD032020223294608480A3205F034FBCD
:1010D0006188018005F036FB04E06188002230461B
:1010E000FFF7A6FF0020F8BDB8810020022800000D
:1010F000F8B50D46064681002B48EA884458521C34
:1011000020686B89018F294F51430091014640317E
:101110004A89C989511A8AB2991A89B2B94214D234
:101120009A4212D0294605F097FB2D892049009854
:1011300005F098FB2818801C4034E0823002401CE7
:1011400080B2042105F0F2FAF8BD2821304605F0FE
:101150008FFBF8BDF8B50546870013480C46C0590B
:10116000C9880068114E024640325389D2899A1AC2
:1011700092B28B1A9BB2B34211D20B4E8A420ED05E
:1011800005F07CFBF05905225F30611C05F01AFA6E
:101190002802401C80B2052105F0C8FAF8BD2821BC
:1011A000284605F065FBF8BD4C030800FF7F0000F2
:1011B0001027000070B50446007800250D2801D0E6
:1011C0000A2200E002225A494B7A002B06D00D2851
:1011D00004D0637C032B01D0432551E0097A8A4374
:1011E00039D10D2809D00E2802D00F2803D134E0C0
:1011F000607C032804D3402542E0607C0328FAD8B1
:10120000A07C0428F7D20A2908D0607C012822D0CB
:10121000022820D06078032809D811E005F034FBBB
:10122000012806D16078032803D0002801D0492581
:1012300026E005F029FB002802D160780228F6D8C4
:101240003020035D22462046E17C3132143000F02C
:1012500019F8054614E0422512E005F015FB0128B7
:1012600007D16078052804D1A01D05F013FB0028E4
:10127000DDD005F009FB002802D160780228D6D81D
:10128000284670BDFFB5002086B001216A46117066
:10129000044605910021002C06D0089D099A1F23C1
:1012A0009A4234D9402032E01C23069D079AF7E782
:1012B0006B185E78330005F021FA1D26101010100F
:1012C000101010101026262626262626262626262C
:1012D00026261010101010102600059B03E06F4604
:1012E000FF5CB74204D05B1E5BB2002BF7DA03E071
:1012F000002B01DB4A2006E0059B6F46FE54059B50
:101300005B1CDBB205936B5C491C5918C9B2914256
:1013100001D20028CCD0914202D04A200AB0F0BDC0
:10132000641CE4B2022CF9D20028B3D0F6E7000026
:101330009805080070B5EFF31085012080F3108840
:101340002C4805F0ADFA0446002D1DD0012080F395
:101350001088002C2DD020464038C08F2649884266
:1013600027D16189208905F0A1FA05000ED0214618
:101370001031A38962892089A847002806D0012856
:1013800017D0022815D105E00020E0E7204605F03F
:1013900093FA0EE0EFF31085012080F310881548D2
:1013A00021460C3005F08EFA002D0CD0012080F380
:1013B0001088EFF31084012080F310880D48006836
:1013C000002802D004E00020F1E7012005F080FAB7
:1013D000002C03D0012080F3108870BD0020FAE7B4
:1013E00010B5BC21054805F0F9F80549012005F0C4
:1013F00075FA10BDA805080038830000040608002F
:101400003513002000B502790021130005F076F9AC
:101410000C340707353520353535353527344279D5
:10142000042A27D8C279530707D05207520F012A3E
:1014300003D0042A01D0052A1CD18279002A01D0C8
:10144000012A17D1007AC01F0A2816D3062114E0FA
:101450004279521E0A2A10D3082242710DE04079C7
:1014600042070AD04007400F012806D0042804D0C4
:10147000052802D00A2100E00721084600BDF3B587
:1014800081B001980C460102CA1D022332480E3178
:1014900005F052F904700199054602272F488E0085
:1014A000002C06D0042C16D0062C10D0072C3FD1CF
:1014B00008E0815905224968897C1140697080598A
:1014C000C77335E0084605F00FFA687030E08059C0
:1014D0000F21C1732CE0044680594068417C0129EA
:1014E00002D1007E01280FD0019805F003FA0121F6
:1014F0000028A0590BD04268D07D00281CD00128BC
:101500001AD004280DD00FE0002068700DE040686C
:10151000C27D022A01D0042A06D1007C02280BD108
:1015200002E0107C022807D06F70A1590320C87315
:10153000284605F007F9FEBD6970F6E701460A780E
:101540000120042A01D90020704749780029FBD0E6
:101550000129F8D170470000021C0000280508008E
:10156000FFB589B00D4600206946059008720B98BA
:10157000000A009005F0BEF907460B9805F0B8F890
:1015800000287DD00B982978000A8400784E012924
:1015900063D0042904D0062948D0072968D125E062
:1015A0003059C17B032901D0042961D16978002910
:1015B0001AD040681022A91C05F004F8002F06D0AC
:1015C0003159C87B032807D0042808D050E030598F
:1015D000C07B032803D04BE00B20C87348E00521F3
:1015E000009805F08DF943E00120B6E03059C07B4A
:1015F0000E283DD1009805F077F9002103E02A1864
:10160000401C9170C0B21028F9D3688A69460883DB
:10161000294606A808221431023004F0D3FF06AB95
:10162000AA1C3946009805F071F921E03059C07BB9
:101630000F281DD1AA1C0A21009805F06DF9002F72
:1016400004D03946009805F06DF911E000231A46E0
:101650003946009805F06CF90AE0012F08D10B9883
:1016600005F046F801281CD0002801D00220059082
:101670006846007A002811D002AA0521009800E0EF
:101680000CE005F049F96846027A6020024368469A
:10169000027201233946009805F04AF905980DB009
:1016A000F0BD3059C07B0228E2D16878002851D0C3
:1016B00002210B9805F03AF8305907224068A91C1E
:1016C000173004F07FFFE878002804D130594068D3
:1016D000407C01283AD0009805F030F9002837D036
:1016E000297A009805F030F9002833D0009805F0E9
:1016F00031F90121009805F033F900282CD0305938
:101700004068417E00292BD0042929D0C17E027D6A
:101710001140C17630594068017F427D1140017708
:101720006846007A0028A7D1305902214268009803
:10173000173205F0F1F8305941684031897B0029B2
:1017400013D004210098FFF79AFE91E7022004E0ED
:10175000062002E0082000E00320694608728BE7BB
:101760000021C17630594068D9E70B21C1737FE76A
:1017700028050800F8B50546FD49123080B2496ECB
:101780002A2250430C1804202071241D05F0EEF885
:1017900000902046093004226946064604F012FFF4
:1017A00005F0E4F8009004226946601C04F00AFF8A
:1017B00005F0DCF8009004226946601D04F002FF89
:1017C000EC4A2946964600204E22EB4BB446514344
:1017D000420066469619727836781202324376468F
:1017E0003668871C76187F00FF18F253401C0228C9
:1017F000EEDBE249A80008580822611C783004F0AA
:10180000E1FE2802401C80B20D2104F08FFF0D2163
:10181000284605F0B1F8F8BDF3B5044681B00420C0
:1018200005F0B0F80246D549A0000858002A25D096
:101830000299082270300B3104F0C4FE0299204650
:1018400013318C460022CB4B4E21CB4E48435500E2
:1018500061466F1879783F78090239431F683F184D
:10186000AD197953521C022AF1DB20460299FFF789
:1018700081FF2046029905F08BF8FEBD6030C17BE8
:10188000490704D50621204605F088F8FEBD21024F
:10189000491C807B8DB2002807D07D225201294649
:1018A000B74805F081F8032100E00121284604F043
:1018B0003DFF0621204605F07DF8FEBDFFB581B055
:1018C0000398070A04F014FF0646102836D004DCFB
:1018D000002E37D0082E04D130E0142E32D0152E31
:1018E0000BD0A64CBD0060596030C07BC00607D548
:1018F0003D21384604F0BCFF24E0022005B0F0BDD5
:1019000005F05EF801281DD1032E07D19C480399EC
:1019100004F01EFF60590121603081736059182264
:101920006030C17B1143C17360598030007C002856
:1019300004D00721039804F0F9FEDEE73846029947
:10194000FFF76AFF0020D9E710B50C4605F03EF816
:1019500021888A00894989580968002902D0894B61
:10196000C968995010BDF8B50E461046150A04F026
:10197000BFFEAC00814F002817D0142815D01528C1
:1019800009D038596030C07BC00606D53D212846B5
:1019900004F06EFF09E0022008E005F011F80128CC
:1019A00003D131462846FFF7A3FB002039590968C7
:1019B000002902D0734AC9681151F8BDFFB50F461E
:1019C0001546110A6D4A8800125881B012681E46E9
:1019D000002A01D0D46803E06A4A00231458135047
:1019E000002C18D0201F4288674B9A4213D10088E0
:1019F000602810D12046403002898A420BD180886D
:101A0000002808D0A068002802D0204604F0E4FF97
:101A1000204604F0E7FF33462A463946019804F091
:101A2000E7FF6BE7F8B5160A544CB5006059174646
:101A300000281CD04030017E104604F077FE384666
:101A400004F056FE012802D006280FD108E06159A3
:101A50006031C87B020709D5F7221040C87305E042
:101A600060598030417C304604F002FF0020F8BD10
:101A7000F0B50646050285B0681C009080B20146AC
:101A800002903F4804F064FE0121029804F04EFEEB
:101A900004F096FF394CB7000128E05903D06030BC
:101AA000C17BE72214E06030807B002809D07D22D2
:101AB00052013348029904F077FF0321029804F0A1
:101AC00035FE304604F09AFFE0596030C17BEF22CA
:101AD0001140C173E0596030C17B4A0711D5FB2228
:101AE0001140C1730098ED1D82B225480024A9B2AF
:101AF00004230D3804F020FE4680047004F022FE1A
:101B0000FCE600220121304604F07EFFF6E610B527
:101B10001046140A04F0ECFD0B280CD01749A00065
:101B200008586030C07BC00603D53D21204604F034
:101B30009FFE002010BD2046FFF79AFFF9E770B521
:101B400010460D46140A04F0D3FD002828D01428AE
:101B500026D015281AD00949A00008586030C07B4B
:101B6000C00615D53D21204604F082FE18E0000095
:101B7000D8020800E0010020300008004C030800F3
:101B800024040000C081002038830000022070BDC2
:101B900004F016FF012803D129462046FFF7DAFAA0
:101BA000002070BDF8B507461D460E461446104687
:101BB00004F09EFD142806D02B46224631463846B6
:101BC00004F028FFF8BD0020F8BDF8B507461D4613
:101BD0000E461446104604F08BFD142806D02B4602
:101BE00022463146384604F01BFFF8BD0020F8BD00
:101BF000FEB5124D019117461E460024009029465D
:101C000004F070FD050005D033463A46019900986E
:101C1000A84704462046FEBD70B509480378021D5A
:101C20000021084D07E0CC00165D012E01D12418DB
:101C3000A560491CC9B29942F5D370BD8C4103001F
:101C4000040608005C6F0020FEB5514D0191174657
:101C50001E4600240090294604F044FD050005D0EE
:101C600033463A4601990098A84704462046FEBDEF
:101C700070B5064614460D46104604F039FD240A98
:101C8000002836D04348301806D001281FD00C2831
:101C900021D00E2827D11AE02878002829D03E4DDF
:101CA000A600A859428E002A23D0412301212046B4
:101CB00004F0BCFEA95900204886A85900680028F5
:101CC00017D1200201210E3004F030FD11E02878F8
:101CD000002808D10DE0204604F0AEFE0A2808D105
:101CE0002878002801D0412100E00021204604F09E
:101CF000A9FE002070BDF8B515460C46104604F04C
:101D0000F7FC2F0A00282CD0234DBE00A859408E86
:101D10000D280BD02148A2780088217983B238465B
:101D200004F096FEA859408E00280CD02078002898
:101D300019D04123A8590121428E384604F076FE7D
:101D4000A95900204886384604F076FE012803D0C1
:101D50004621384604F076FE22796188384604F040
:101D60007DFE0020F8BD0023E4E7F0B50D480E230A
:101D7000021D0B4C0578002107E0CE00975D9F42C5
:101D800001D13618B460491CC9B2A942F5D3F0BDDF
:101D900028490300F4FBFFFF540508006001002000
:101DA0008C6F002004060800F3B50546204980002A
:101DB0000C582802401C87B281B00026384604F037
:101DC00097FC152807D19520005D002803D004F06A
:101DD000F7FD002818D023464033988AD98A8842D4
:101DE00000D808464004020C99823946114804F094
:101DF000DBFD012194200155384604F097FC803426
:101E0000607D002805D101E01F26F8E7A07D0028AD
:101E10000CD000206075A075022004F0B3FD0028EE
:101E200004D029463046029A04F01EFEFEBD000092
:101E30004C0308002304000005200007018830221D
:101E4000114301800188032211430180704705205E
:101E500000070188302291430180018889088900A8
:101E600001807047704710B5032800D104203F4C13
:101E700040010019490008181A43C28010BD032808
:101E800000D10420394A4001801801228A40828012
:101E90007047032800D10420344A400180180122F1
:101EA0008A404280704770B5064604981446002860
:101EB0000D46304602D0FFF7ECFF01E0FFF7DFFFF1
:101EC000224629463046FFF7CEFF70BD032800D1D9
:101ED0000420264A40018018008801228A401040D0
:101EE00000D00120704770B501242146133881408D
:101EF0000D4688B200F029F884401D48C189A943E5
:101F00000C43C48170BD10B50446133804280AD8A8
:101F10002046FFF7E8FF1749A00040188038406BC3
:101F2000002801D0804710BDE106C90E012088407D
:101F30001149086010BD1320E5E71420E3E71520E0
:101F4000E1E71620DFE71720DDE700280AD0411E71
:101F50004840C003010C002001E04908401C002952
:101F6000FBD100E0102080B270470000003000502C
:101F7000001400500080002080E200E010B5FFF760
:101F800066FF052109078888174AC30B104618D039
:101F9000164B1C88640714D51178890710D5198849
:101FA00002221143198019884908490019804468A0
:101FB000002C05D0985E0421595E0A229A5EA04743
:101FC00010BD8988C906FBD51178C907F8D0084922
:101FD00001228A800A8880239A430A808068002828
:101FE000EED0804710BD0000D881002000020050D4
:101FF0000001005008430121890303460B43434974
:102000000B80434B18430880092002434A807047E5
:102010003E490A880F239B0100079A43800D024323
:102020000A8070473949002008807047374839498D
:10203000028802231A430280491E02D302889207B3
:10204000FAD400210181408970470AE000BF00BF37
:1020500000BF00BF00BF00BF00BF00BF00BF00BF88
:1020600000BF401EF2D2704770B5022251020446F2
:102070004E003046FFF7BEFF1420FFF7E6FF002CAE
:1020800001D0092000E00720FFF7C2FFFFF7CEFFD5
:1020900005460120FFF7D9FF022200213046FFF755
:1020A000A9FF002C01D0092000E00720FFF7B0FFB6
:1020B000FFF7BCFF4019154A0021118070BDF0B533
:1020C000124C154820801420FFF7BFFF01256D0238
:1020D000A580E5802088E9000843208020888E10B4
:1020E000B0432080FFF7A2FF0746208830432080BE
:1020F000FFF79CFF0246780071424018281A5200F0
:102100005118691AA080E180F0BD00000015005050
:1021100001400000A08601000148000008B58921A7
:102120000520000701810121634A490311800188CC
:1021300080221143018001888908890001805F485D
:10214000018A02221143018200F09CFC04F092FCFF
:1021500004F096FC0020694601E00888401C0880D5
:1021600008889128F9D308BD08B555490020088092
:102170004880554A534BD380FF23D2331381C88004
:10218000C3215180514A082111806946088003E02B
:102190006A461188491C1180694609889129F7D33C
:1021A0006946088003E06A461188491C1180694627
:1021B00009889129F7D3694601E00888401C088006
:1021C00008889128F9D308BD414A508091800120A8
:1021D0001080D088C007FCD17047F1B5FFB0FFB0C8
:1021E00094B011AC35480494008AA41C1090FFF7F9
:1021F00095FF334801880F9141880E913249CA8872
:102200000D920A890C92C2880B92408B0A90314839
:102210004088099048888446FFF7A6FF00252B4692
:10222000FF2111A8FFF7D0FF00210A460846049EAF
:10223000275C365C7E40F607F60F8E401643491C3D
:10224000C9B2F2B2082906D1FFA9C96C4A556D1C62
:102250000021ADB20A46194FC82620373E80103003
:10226000FF2680B2B600B042E1D95B1C9BB2022BC4
:10227000D6D31249109808821449002008801048CB
:102280000F9901800E9941800F490D9ACA800C9ACE
:102290000A810B9AC2800A9A42830E4A099850809A
:1022A0006046488005200007018880229143018014
:1022B0007FB07FB015B0F0BD00020040E0300050AC
:1022C0000024005080800000602800502020005032
:1022D0000035005000260050B14AD1609060704730
:1022E00010B5012000F0B5F90520000200F0ECF96E
:1022F000C0B210BD70B50024AA4DFFF7F1FFC007B2
:1023000004D0641CAC42F8D30020C04370BD70B54B
:10231000FFF7F0FF002817D100F09BF900F046F915
:102320009F2000F0BAF9002000F0B7F90504002062
:1023300000F0B3F904022C43002000F0AEF9204372
:10234000054600F03AF9284670BD70B5FFF7DFFF8B
:10235000934C954A002114234B43D5589B185B6836
:102360001D4003409D420ED1142308B24B432080F0
:102370009B189D68A560DB68E360142358438018B0
:10238000606048B270BD491C89B20429E3D30020C3
:102390006060401E70BD70B5FFF7ACFF002815D11E
:1023A00000F057F97F4E0025062000F08DF900243B
:1023B000FFF796FFC10703D1800701D5002070BD4C
:1023C000641CB442F4D36D1C322DEDD30020C04305
:1023D00070BD70B5064672480D468068511981423D
:1023E00001D9441B00E01446FFF784FF00281AD1EE
:1023F000022000F02EF900F0D9F803212846090642
:10240000084300F04AF9002000F023F9002505E018
:10241000002000F042F930706D1C761CA542F7D305
:1024200000F0CBF8204670BD70B505465C480E46FE
:10243000C0681446824200D984B2FFF75BFF0028CF
:102440001ED1FFF7A8FF00281AD1022000F001F9E1
:1024500000F0ACF8012130464906084300F01DF9B0
:10246000002000F0F6F805E028786D1C00F015F962
:10247000641EA4B2002CF7D100F09FF8FFF73AFFDA
:1024800070BD70B50D460446FFF785FF002802D0E9
:102490000020C04370BD022000F0DBF82806204376
:1024A00000F012F9FFF726FF70BD10B50024FFF70A
:1024B00021FF002811D1012000F0CBF800F076F8C0
:1024C0000920000300F0E9F8002000F0E6F8002001
:1024D00000F0E3F884B200F070F820B210BDF7B558
:1024E00082B02F4F0E460091F96814460D463046D3
:1024F00004F0B8F9401C6843451E002000F0A9F81C
:10250000B868801BA04200D204462646002719E086
:1025100000988019A84202D900982E1A761C0298B9
:10252000B2B2C0190099FFF77FFF002803D0002046
:10253000C04305B0F0BD681C00901948BF19C068C1
:102540002D18E61BA742E3D33846F2E710B5FFF794
:10255000D1FE002805D100F07CF8B92000F0B4F8D5
:10256000002010BD10B5002000F073F8AB2000F083
:10257000ABF8002010BD1FB56A46517310730020E0
:1025800000900190034602460146029003A800F025
:102590001BF8FFF7E7FFFFF7D8FE04B010BD0000FF
:1025A0001480002080841E009C6F002010B54C48D1
:1025B00041780078FFF763FC10BD10B548484178BA
:1025C0000078FFF766FC10BDF8B50E461546444985
:1025D0000278079F0A7040781C464870FFF7EDFFAD
:1025E0000520000781880122D202114381803D48E5
:1025F00001884908490001800188FF228132914306
:10260000F20111430180018840229143AA01114344
:102610000180018804229143A200114301800188B6
:1026200002229143069A520011430180018801223F
:1026300092039143BA031143018001881822914308
:10264000089AD200114301800188012211430180C0
:10265000F8BD24490A88520852000A800A88FF23DC
:1026600081339A43C00102430A8008880122104343
:102670000880704710B51B4801884908490001804F
:102680000520000781880122D202914381801448ED
:1026900041780078FFF7FDFB10BD10B5114900230C
:1026A0000A88D205920F012A01D9040C8C80488037
:1026B00008888004FCD50120C880012A01D98888B7
:1026C00003044888C01810BD10B50446FFF76EFF1C
:1026D0002046FFF7E2FF0446FFF76FFF204610BDDC
:1026E0002480002000120050F0B5974D2B70052378
:1026F0001B079C88202634439C80944C0023A38194
:10270000924B6126603B1E801E880627BE4349000F
:102710000E431E8019881026B143120111431980FF
:102720008105890D99800121A181218A8906FCD426
:102730006870F0BD854900208881052000078188E8
:102740002022914381807047F0B5804B7F4C7F4DB4
:1027500000200822603B7D492034203D1A820E8AE9
:102760007607FCD50E8AB606FCD42688AF8AF60713
:1027700005D0774E401CB042F0D30120F0BD0020C0
:10278000F0BD30B50104704C0B0E704922786039F1
:10279000012A02D0022A0ED110E06C4A0025958150
:1027A000C5036478ED0F25438D8001249481148A3C
:1027B000A406FCD40B82C0B2088230BD0202120E05
:1027C0000A82F7E7F8B516460446EFF310850120B4
:1027D00080F310880846FFF7D4FF5C490022603977
:1027E000FF275A48013704E0038A9B07FCD50F8274
:1027F000521CB242F8D3002D04D0012282F310887B
:1028000000220BE00022F9E7038B002BFCD00B8A9F
:1028100025682B7023685B1C521C2360B242F3D3E3
:10282000018A4907FCD5018A8906FCD4F8BD7FB529
:102830000D46002A0DD001204004441B944200D3D1
:1028400014461C60FFF780FF00280CD0012004B064
:1028500070BD002018600FE0202229466846FFF76F
:10286000B1FF203C2035202CF6D2002C04D022468B
:1028700029466846FFF7A6FF0020E8E7F8B50546B9
:1028800000201860012040041E460F46814231D2CC
:10289000FF21F8B201310C1AA24200D21446FFF710
:1028A00053FF002801D00120F8BDEFF31080009005
:1028B000012080F310883846FFF763FF234923483F
:1028C0006039028A9207FCD52A780A823268641E2F
:1028D000521CA4B26D1C3260002CF2D10099002968
:1028E00000D0012181F31088018A4907FCD5018AB3
:1028F0008906FCD40020F8BDF8B506460020186013
:102900000090012040041C460D46814201D3022064
:10291000F8BD401B904200D2024617460FE02068E7
:10292000BAB2411980196B46FFF7A8FF002801D001
:102930000120F8BD2168009809183F1A2160002F76
:10294000EDD10020F8BD000026800020601300506B
:10295000400D030030B4344C33493448603409E04E
:1029600043681A780A6002685B1C521E436002606A
:10297000002A05D0A28B9207D20FF1D130BC70474C
:10298000002242604B680224A3434B608168002907
:10299000F4D0826030BC0020084710B5224881681E
:1029A0000907090F01291AD002291CD0042917D0C0
:1029B0000C2914D11D4A117E012910D14169090643
:1029C000C90F0CD00021D160116183885B085B00C6
:1029D00083805369002B02D001205161984710BDBC
:1029E00000F004F810BDFFF7B5FF10BD0F490E4809
:1029F00009E002680B691A70CA685B1C521E0B6101
:102A0000CA60002A04D04269D207D20FF1D17047C0
:102A100000220A6143685B085B0043604B69002B3E
:102A2000F5D000204A61184700110050E4810020D1
:102A300030B58C498C48CA05148880231C43148007
:102A40008A4C65892D0701D4491EFAD2884C012190
:102A50002160884C0188218087494088088010883F
:102A60009843108030BD0020704770477047704712
:102A70000020704701218907086B07221043086373
:102A80007047704730B57E497C4808607D494C20CE
:102A900008807C4C7C4B203C23827D497B484880CD
:102AA0007D487C4901807B49193141802221418147
:102AB00081218900018279494182794901837749DD
:102AC00011314183744A77492032918041227649FD
:102AD00012018A80754ACA80744D1035CD810A82F0
:102AE0004A82921C8A826A1FCA82FF2246320A8365
:102AF0006F4A4A836F4A592111806E496E4D2031C9
:102B00000D8043254D806D4D5582D5228A80FF2250
:102B1000D3320A816A4A4A816A4A8A816B4A6A497F
:102B2000118058496A4A60394A80CA8810252A4368
:102B3000CA80614A0A3A0A81524D664A403D6A801B
:102B4000638208224A814C495A4A0988403A1182D4
:102B50004849614A0988118060490978002901D0F3
:102B60003021018330BD4008704700B58BB05C4A0E
:102B700042625C4A82625C4A42615C4AC2625C4A6E
:102B800002605C4A02625C4A42605C4AC2613C4A42
:102B90003A48002110603A484038026B03129A43C9
:102BA0000263426B1F231B049A4303231B04D218A6
:102BB000426353480268C3129A43026002680313D7
:102BC0009A43026068464154491CC9B22829FAD385
:102BD000014628224B4803F0F5FCFFF753FF03F0B2
:102BE00039FD49490880002003F03AFD03F03EFD1D
:102BF0000BB000BD10B5224920480860204840387D
:102C0000416B1F221204914303221204891841636D
:102C100000060168C908C900016005200007018994
:102C200089088900491C0181018908221143018119
:102C30000E484189890504D50188782291430831DD
:102C40000180FFF71FFF3148006F0078002804D093
:102C50002F4800880B496039C880012003F036FDF9
:102C600010BD0000A0860100087F04002000005075
:102C700000800040560208004A0308004C05540733
:102C800080000040602C00507F7F0000AC290000D5
:102C90000022005009090000002400502204000016
:102CA00030D00000EE110000002500502E02000080
:102CB00044200000402800500D9500000242000012
:102CC000E4DC00001092000053780000002A00505D
:102CD0008B1000009DD500000026005000820020CF
:102CE000672A00206B2A0020712A0020752A002004
:102CF0006D2A0020832A00206F2A0020672B0020E5
:102D0000000200402000080078040800E0010020D4
:102D10005204080010B50124A407A06BFDF70DFFB5
:102D2000CC4903F09FFD27221201511A00D1012145
:102D3000C94A50601160206B082188430843206312
:102D400010BDFFB500256A461570C4490968002901
:102D50007CD00A464032937C002B77D0C04CC14BCC
:102D6000012813D0098D26460907803E0127366FBA
:102D7000C90EFF04C919715A6E46890B3171317938
:102D8000002963D03179012906D011E06E46E16C4B
:102D90003170002199700BE011894E267143B24EBB
:102DA00025688919695A6E460D0AD17C691A3170F5
:102DB000317800294BD0AD4DAC49603DAE6E097BFA
:102DC0002E254D43B446751905E0491C4907490FA6
:102DD0002E254D4365446E463678761E37063F0EE7
:102DE0006E463770F1D1AD786E06760E6D462E7157
:102DF0002D79AE06B60E6D462E722E2569439A4D7C
:102E0000A469463D4919615A6D46C906C90F29731F
:102E1000012805D000209870287B00280FD10BE0F6
:102E2000287B002802D1287A00280FD0107D0028A6
:102E30000CD101201AE009E0287A002806D0107D84
:102E4000002803D1D07D08210843D075FFBD01289B
:102E5000FCD0002D02D09878002806D0107D0028E4
:102E600003D1D07D08210843D07500209870FFBDA4
:102E700010B5052000074189890708D041898908D4
:102E8000890041817A494A88520852004A80018962
:102E9000802211430181018A042291430182818AA7
:102EA0008907FCD503F0F2FD012080070169016963
:102EB0004907FCD510BDF8B56A4EF08800282AD124
:102EC00001200527F0803F077889800720D0B88A45
:102ED000400701D502F06CFA654D2888802108432F
:102EE0002880644CFF20608004202080FEF7A4FF2F
:102EF0007D21C900E088A288000480188842F9D9A1
:102F000005202080B088788029888020814329800E
:102F1000594910200860F8BD70B5FEF798FFFFF71B
:102F2000A7FF504C00265548E68001894908490012
:102F3000018101208007816904221143816103F02E
:102F4000ABFD4D49102080310125086003F0AAFD3A
:102F500003F0AEFD464826704089800510D56078A4
:102F600000280DD1464865700088C00708D10120AF
:102F7000FFF77AF88B218900884201D9022060701E
:102F800070BD10B503F09AFD00F05DF835490120E1
:102F9000087010BD10B501208007008A000601D519
:102FA00000F051F810BD10B50120FFF7CAFE03F084
:102FB0008BFD10BD10B50124A407208A000718D589
:102FC0000220FFF7BEFE03F085FD206840004008A8
:102FD0006100084320602068C00FFCD11E4880308B
:102FE00001680906090E01D0012101601D49042074
:102FF000087010BD70B52348008885062248AD0EC4
:1030000044681748006F0078002802D1284603F072
:1030100067FD1E480089134EC00507D520060BD555
:10302000E00709D0284603F061FD03E0200603D540
:10303000E00701D003203070200403D5E00501D55E
:103040000220307070BD10B506490120C87003F031
:1030500053FD10BD71020000400000406C030800E9
:10306000E0010020028200204A0008003803080026
:10307000200000500016005000E200E00033005035
:10308000001500500020005000020040002C0050AD
:10309000FEB55F4C0026606D37460090FDF77AFC68
:1030A0005C4D002802D12879022801D1002000902F
:1030B000FDF76DFD00280ED103F024FD00280AD095
:1030C00054480126C078002805D005252D07A88A78
:1030D000C00701D0042698E003F08CFA00287DD1C7
:1030E0004D488069002801D0606D00904948009CDF
:1030F0008178684603F00CFD00286FD0012080071E
:10310000406940066AD443488178684603F06CFA07
:1031100000287AD00020FF2100942D310124019055
:10312000A407206A8842FCD33A488178684603F0B5
:10313000EFFC002869D06069400666D43548817884
:10314000684603F051FA00285FD00098002804D0A8
:103150000199002901D0401E0090304900220978D1
:103160008320022900D1B5202D490B78012B00D1F5
:1031700021300A70E26B0F21920A92020A43E26345
:10318000E16B284A800211400143E163E06B372183
:10319000C002C00A89050843E0630098042600289D
:1031A00001D0001D0090C002642103F05BFB0028E9
:1031B00000D0401E17490979002900D0012103F0F1
:1031C000ADFC1948C06A8047FDF7F8FC00280AD01A
:1031D0002888302108432880288800E015E0032152
:1031E000084328800127206B0004C00FFBD00F4844
:1031F0000168C905FCD5002F01D0FEF728FE03F0B9
:1032000093FC28898021884328813046FEBD000038
:1032100060020020C6060800A80508005402080045
:1032200003820020FF03E0FF1C07080000020040AB
:10323000FFB5002685B0154641486A4634463746F4
:103240001082002904D0042203A803F0BBF902E095
:103250000020C0430390002016E003990141C907F4
:1032600010D00F99020151180A79022A02D0102AAF
:1032700005D102E0761CF6B201E0641CE4B20989D3
:10328000C9198FB2401CC0B2A842E6D300940023F3
:10329000324601970E99059803F04CFC00242AE071
:1032A00003992141C90724D00F9927017E18F1887D
:1032B00002A8009101900F983279C359059831897D
:1032C000008803F03DFC002813D17189002910D03B
:1032D0003079022807D10F980222C05904A903F0BF
:1032E0006BF900280DD0684671890089F26803F0F7
:1032F0002DFC641CE4B2AC4201D20028D0D009B04D
:10330000F0BDF0684078FF2809D00899002906D060
:1033100005996A4609781289511A089A11546A4621
:103320001089411C11807189F26803F00FFC00289C
:10333000DFD16B4602220121188903F00DFCD8E78A
:103340000328000010B51221244803F00BFC244987
:103350001C2003F00DFC00211C2003F0E7F910BD38
:1033600030B503460120002103241A46CA40D20783
:1033700004D04D0022466D1CAA401043491CC9B21E
:103380000929F2D330BD02460020122901D98D202F
:103390007047062A06D0072A07D0082AF8D107293D
:1033A000F5D170470829F2D170470629EFD370474D
:1033B00070B50A4C0546218802231C22094803F0F7
:1033C000BBF9058003F0BEF9E088002103F0D6FBCD
:1033D00001211C2003F0AAF970BD00000A82002020
:1033E0000071002004700000FEB53B4E1C20708070
:1033F0001D46174634460888FFF7B2FF029037484B
:10340000334601900833132202A90097A01D03F050
:10341000BBFB040008D1F088002103F0AFFB044699
:1034200001211C2003F082F901231C2229462C488B
:1034300003F082F9047003F085F90020FEBD70B539
:103440000C4625490B802078082814D8CA880831F2
:10345000415C51188DB2822D0BD06178FFF793FF3C
:10346000010009D16D1C6178A8B2A21C03F06EFBAB
:1034700008E0822100E08121194B17485B1CDA1C0F
:1034800000F030F8002070BD70B51D460C4608886D
:1034900003F080FB104AFF281071158009D0A17835
:1034A000D08803F06BFB02211C2003F03FF90020C1
:1034B00070BD0B4B89219B1C9A1C074800F012F829
:1034C000F5E710B5044A180A1279904202D108882B
:1034D000FFF76EFF002010BD0A820020EC6F002075
:1034E00001700000F8B514460F461E460546428896
:1034F00001880623204603F01FF90446287903F0CB
:103500004FFB208027716680204603F01BF9F8BD31
:1035100070B51446428800790D46010204233448F0
:103520000C3103F009F9002D01D0132100E0122124
:103530000170448003F006F970BD38B5202069465B
:103540002C4C08706088002800D0401C0B4680B2CC
:103550000122002103F000FB6088002800D0801CBD
:1035600080B2402103F022FB00F0B6FCFFF7EAFE38
:103570000024214D09E040194069002803D0641C53
:10358000E4B2804701E0641CE4B220461C214843B9
:10359000295CFF29EFD138BDF7B50D461C2003F09B
:1035A000A7F8022805D1EAB21C230299009803F07B
:1035B0004FFA362003F09CF8022805D1EAB23623F0
:1035C0000299009803F044FA009800240A4E07027A
:1035D00008E03B460343641CE4B2EAB20299009857
:1035E00003F036FA1C206043305CFF28F1D1FEBDA9
:1035F0000D300000F60408009473002010B50E2171
:10360000104803F0AFFA1049372003F0B1FA012156
:10361000372003F08BF810BD70B50A4C0546628860
:1036200021880223094803F087F8058003F08AF80F
:10363000E088002103F0A2FA0021372003F076F899
:1036400070BD00001E8200205071002009DC0000C7
:10365000FEB5DA4C1F460D4662800023D84816E0BE
:10366000914212D13118496800290ED01C214B43D8
:1036700018184068019000922A78A01D6B68A9680C
:10368000FFF7D6FD060008D011E05B1CDBB21C265C
:103690005E43815DFF29E3D112E028782072E08843
:1036A000002103F06BFA0021372003F03FF80123DB
:1036B00037223946C34803F03FF8067003F042F85A
:1036C0000020FEBD70B51D460C46088803F062FA66
:1036D000BA4AFF281071158009D0A178D08803F06C
:1036E0004DFA0221372003F021F8002070BDB54BC0
:1036F000B44A5B1C09328921B048FFF7F3FEF4E7B6
:10370000F0B5AE4815460C460279190A8FB09142C1
:103710007DD12388C188007A591A8EB2B04278D9F7
:103720000AAA0EA9184603F047FA6846018D2046FA
:10373000A54A08300190914218D1208800F05BF929
:1037400007A903F03FFA6846808B4005800F0128E7
:1037500000D00020214600F039F905062D0E2DD1AC
:1037600061882088019A03F0F1F926E00020944F47
:1037700015E0A94211D1D119896900290DD001990B
:1037800000911C256843C01985696388A288E17986
:103790003046A847050008D010E0401CC0B21C21EC
:1037A00041430A46B95CFF29E3D1A288002AD7D059
:1037B00061882088019B03F00BFA0546E079002818
:1037C00028D0002D26D1208809AA02A903F006FAE4
:1037D00068460089801D83B278484288018879480C
:1037E000C01D02F0A9FF074668460289B81D099965
:1037F00002F0E8FE7148007903F0D2F938807E804B
:1038000068460089B880384602F09CFF02E00AE072
:10381000FFE78225A079012805D168482188007931
:103820002A4603F0E1F900200FB0F0BD70B5634CFB
:103830000E46087821886288122802D0132808D002
:1038400018E060480623001D02F076FF05466089F7
:1038500006E05C480623801D02F06EFF0546A08945
:103860006880207903F09CF92880707828712846B8
:1038700002F068FF002070BD70B5504D0C462879ED
:1038800003F08EF92188884207D1E8886188A21D5B
:10389000401880B2A18803F059F9002070BDFEB530
:1038A000464D0C46287903F07BF92188884223D1C4
:1038B000E8886188A21D401880B2A18803F046F90B
:1038C000E8886188401880B2297A00F0B3F86A4627
:1038D00001A903F083F900980088012801D08B2604
:1038E0000BE0E8886188401882B200213348FFF776
:1038F0000FFE6088688112E0812632486A88298834
:103900000623001D02F018FF07466088788028799A
:1039100003F046F938803E71384602F013FF00206C
:10392000FEBDFEB5254D0C46287903F039F92188F6
:10393000884223D1E8886188A21D401880B2A188FE
:1039400003F004F9E8886188401880B2297A00F011
:1039500071F86A4601A903F041F90098008802282D
:1039600001D08B260BE0E8886188401882B20121E3
:103970001248FFF7CDFD6088A88112E0812611482A
:103980006A8829880623801D02F0D6FE07466088D3
:103990007880287903F004F938803E71384602F0C7
:1039A000D1FE0020FEBD10B5044A180A12799042DB
:1039B00002D10888FFF730FE002010BD1E820020D3
:1039C0009473002001DC00000229000002464B88AD
:1039D0000020022B01D00D2070470989002A05D054
:1039E0000029F9D00129F7D0812070470029FCD0A7
:1039F0000229F9D1704770B586B0044602F020FF65
:103A000005461D4E0EE06A4604A9204603F0D4F890
:103A100068460088B04203D1641CA0B206B070BDF5
:103A2000641EA4B2A888A04202D8E888A042EAD2C4
:103A30000020F3E7F0B585B0044602F001FF0E4E1A
:103A40000546FF360C4F0FE06A4604A9204603F0F6
:103A5000B3F868460088B04202D1204605B0F0BDF8
:103A6000B84207D0641CA4B2A888A04202D8E88853
:103A7000A042E9D20020F1E703280000FFB58BB097
:103A80000521C90268468182C91C0182FA49018365
:103A9000FA4C3621618006219925009108220023E5
:103AA00001953621A01D03F045F805007ED1A01D2B
:103AB0000125009501900222E08805AB114603F034
:103AC0003FF8E088EE4A022103F040F803AE019689
:103AD0000095E08804AB0222132103F031F802AF15
:103AE000092001970090E088E64B1022042103F0A2
:103AF00027F8E5496846007A48706846407A887039
:103B00000A4668461321808903F020F80196009543
:103B1000E08804AB0222132103F012F80920019778
:103B20000090E088D94B1022042103F009F8D8490D
:103B30006846007A48706846407A88700A46684647
:103B40001321808903F002F801960095E08804AB08
:103B50000222132102F0F4FF01970095E088CD4B7B
:103B60001022042102F0ECFFCB496846007A48702D
:103B70006846407A88700A4668461321808902F0B8
:103B8000E5FF01960095E08804AB0222132102F0C4
:103B9000D7FF092001970090E088C04B1022022136
:103BA00002F0CEFF6846BE49007A00E058E0487057
:103BB0006846407A88700A4668461321808902F078
:103BC000C5FF01960095E08804AB0222132102F0A4
:103BD000B7FF092001970090E088B24B1022142112
:103BE00002F0AEFFB0496846007A48706846407AF5
:103BF00088700A4668461321808902F0A7FFAB4D02
:103C000001960095E08804AB0222132102F098FF90
:103C100001970095E088A64B1022012102F090FF49
:103C2000A4496846007A48706846407A88700A4617
:103C300068461321808902F089FF09A909200191B2
:103C400000900222E08806AB114602F079FF05469B
:103C5000E088002102F092FF0121362002F066FD8B
:103C60000123362294480E9902F066FD057002F099
:103C700069FD00200FB0F0BD3EB5804C0D46E088D8
:103C800002AA0C3080B2694602F0A8FFE08801AABF
:103C90000D3080B2694602F0A1FFE088AA1C0C300A
:103CA00080B2012102F052FF01980088002806D05E
:103CB000E08800210C3082B22046FFF729FC00206A
:103CC0003EBD10B56D480A46C0880421801D80B2F3
:103CD00002F03CFF002010BD38B50D4600206946BB
:103CE000664C08802380288802F054FF2071FF284A
:103CF00017D0E0886A460D3080B2022102F026FF1C
:103D0000E0886A460C3080B2012102F01FFFA978DA
:103D1000E08802F033FF0221362002F007FD002088
:103D200038BD654A1B23DB02521C89215348FFF72B
:103D3000D9FBF4E7F8B5514D0C4629798022180AD1
:103D400088427DD1E988208826468B1C00270836CA
:103D500098420ED1012100916188324602F0F6FEB0
:103D6000E079002875D05448082336222988C01FDE
:103D700010E00B1D984229D1022100916188324642
:103D800002F0E4FEE079002863D04B48298808233C
:103D90003622801F02F0D0FC0646287902F000FF90
:103DA00030807760E07A01067160A07A00040143F8
:103DB0007160607A000201437160207A0143716092
:103DC0000098B070304602F0BDFC42E00B460A336A
:103DD00098421BD104200090E079002839D0364861
:103DE000298818233622001F02F0A6FC07462879EE
:103DF00002F0D6FE388062883146381D02F0E2FBC0
:103E0000A078F8700098B8703846DCE70B460833A5
:103E1000984220D1032100916188324602F096FE3B
:103E2000E079002815D02448298806233622401F2F
:103E300002F082FC0646287902F0B2FE308000E0F3
:103E400018E0B780607A0102B180207A0143B18026
:103E5000B6E7002207E00D31884204D1618832467E
:103E600002F074FEF5E7A079012803D121882879B2
:103E700002F0BAFE0020F8BD022900002E820020C8
:103E80001072002012720020607400202272002044
:103E90007374002032720020867400204272002069
:103EA0009974002052720020AC74002001020000BE
:103EB00062720020BF74002009D8000010B5054AC6
:103EC000180A1279904202D1088800F013F80020F5
:103ED00010BD00002E82002010B50821104802F00D
:103EE00041FE1049362002F043FE0021362002F048
:103EF0001DFC10BD70B50A4D0446E888002102F093
:103F00003DFE298804233622074802F015FC048070
:103F100002F018FC0121362002F008FC70BD000000
:103F20002E8200207472002001D8000010B500F02D
:103F30003DFB00F01BFC00F04AFA0120FCF720FDDD
:103F400010BD0C2250430E4A10B580188078FF280F
:103F500003D0088800F02AF810BD01F097FE10BDCC
:103F600010B500F011FA002801D001F08FFE10BD4D
:103F700010B50449052001F017F90349088010BD68
:103F800050820020CF5600203A9000200021F74AAE
:103F900005E0834201D101207047491CC9B20C23BE
:103FA0004B43D35CFF2BF4D100207047F8B5054696
:103FB0000024EE4E0AE080198168002904D0641CB8
:103FC000E4B22846884701E0641CE4B220460C2194
:103FD0004843315CFF29EED1E44E00240C3609E061
:103FE0008F19B968002903D0FFF7D0FF002809D046
:103FF000641CE4B20C216143705CFF28F0D1002402
:10400000DB4E10E0641CB968E4B228468847F1E74B
:1040100080190169002904D0641CE4B2284688474D
:1040200001E0641CE4B220461C214843315CFF29B6
:10403000EED1F8BD70B5CD49CE4C0E460C36CC4D08
:104040000DE052185268002A07D0C2B20C235A431E
:1040500051184968401C60702DE0401C6070607809
:104060000C2242438B5CFF2BEBD10AE08919496893
:10407000002903D0FFF78AFF002809D02078401CD0
:10408000207021780C204143705CFF28EED117E0AE
:1040900020780C21414389194968401C20700AE0AE
:1040A0004919C968002909D0C1B21C2251434919D4
:1040B000C968401CA0708847002070BD401CA070DB
:1040C000A0781C2141436A5CFF2AE9D10020A0703E
:1040D00060702070012070BDFFB581B005461E469E
:1040E000144618460A9F02F0EFFD00902E702946F4
:1040F0003846009A02F07EFD0246C8209E490823F9
:104100009E4E002A02D008807380FEE72A78A242E1
:1041100002D908807380FEE7A24200D322462A70AB
:104120000099029802F04EFA009802F0A3FD05B043
:10413000F0BDF0B58F4899B0C06800285CD150231D
:1041400032220D218E4802F0F7FA0446894E0025EE
:10415000F0600E20207065701920A5808001A0817C
:10416000E0810720207401206074A57421460B2093
:1041700014310090481E20231C2217910190FFF754
:10418000ABFF21460C2031310090481E20231F2216
:1041900018910290FFF7A0FFF0681A22C17C20302E
:1041A000571A007C1D210E1A68460574002F01DC89
:1041B000002E21DD3E206946087406AA04A90220CB
:1041C00002F018FD0028684601D0057414E0017C57
:1041D000002911D08F4205DBE27C179806AB12183C
:1041E000019807E08E4207DB2034227C189806AB4A
:1041F0001218029800F0FAF85E48C06819B0F0BDD5
:1042000070B55C4D84002D1D2959002911D1010282
:104210000A2332225B480E3102F08EFA0A21017025
:10422000285110218180082141800021C1807D21F9
:104230000181285970BD70B54E4DA868002821D164
:104240004F48222332220D210A3802F075FA032149
:1042500001700446A8600A20444960701022233986
:10426000A01C02F0AFF90021618221756175172051
:10427000E0820820208310206083A1836420E083F3
:1042800020342170A86870BD3D4810B5012332224A
:104290000D210B3802F050FA0221017002F052FA9F
:1042A00010BD344810B50C21183002F05BFC3149C8
:1042B0000020183101220C2343435B18401C0006E8
:1042C0001A71000EF7D029493220303102F050FC2B
:1042D0000021322002F02AFA10BD10B50446010276
:1042E0002848022332220A380E3102F025FA0C2225
:1042F0000121544301701F4A1321417018320021DB
:10430000A218D17002F01EFA10BD70B50D46010260
:104310001C4814462C2332220C380E3102F00CFAC1
:10432000014620310D724C7202F00CFA70BD00E7AC
:1043300010B5FFF7FEFE02F005FA0E490020C86036
:104340000221322002F0F2F910BD10B50446FFF749
:1043500057FF02F0F7F9074A0020A100121D505044
:104360000421322002F0E2F910BD0000A872002002
:104370009473002038820020003100500033005038
:104380000E3400000E38000010B50121322002F07A
:10439000CDF9FFF74FFEE7E74CE610B5FFF74BFF0F
:1043A00002F0D0F91A4900208860DDE7184A0021A0
:1043B00024324B00D35C834203D1480080184078FC
:1043C0007047491CC9B20A29F3D30120704710492C
:1043D00010B50020FF232431012442008B545218D1
:1043E000401CC0B254700A28F7D3BDE770B506462A
:1043F000481C1070092015460C465070224619467C
:10440000A81C02F0DFF83078A41C0019307070BDD1
:104410003882002010B5104602F06AF9002809D150
:10442000012332220D215D4802F086F9012101703D
:1044300002F088F9002010BD70B50D78584C0E2D93
:1044400023D008DC012D14D0022D0CD0032D16D062
:104450000D2D08D10BE00F2D1BD0102D07D0112DE5
:1044600005D0122D03D02568002D00D0A8470020CC
:1044700070BD48780028FAD1FFF78FFFF7E748783A
:104480000028F4D1FFF76CFDF1E7487801F05EFCFD
:10449000EDE7487801F05BFCE9E7F8B51C4610460B
:1044A0000E4602F025F9022828D1250A0C202F46B5
:1044B00047433C483C18A570FF2D1BD00121E170FB
:1044C0000521322002F032F936483188C153707A22
:1044D00060713146A01D0A3106220C4602F072F8C6
:1044E00006222146304802F06DF800221146284687
:1044F000FFF70BFF3146284601F004FC0020F8BD11
:1045000070B50C46097816460A2908D0244D29684A
:10451000002902D021462C68A047002070BD10461B
:1045200002F0E6F80428F8D160780028F5D10521DA
:10453000304602F0FBF8F0E710B510460C4602F0EA
:10454000D7F8032803D0052801D0042802D120463B
:1045500001F013FC002010BD10B510460C4602F00F
:10456000C7F8012808D12078002805D1FFF714FFEB
:10457000002801D0FFF7FCFC002010BD0020704790
:10458000FEB51C46064D089B07262D1D6F4668C7C5
:104590001346224600F049FDFEBD00000234000033
:1045A000E87200205082002028800020704710B55B
:1045B0001C2102233222880202F0BEF8FF2174314E
:1045C000018002F0BFF810BD70B505460423322209
:1045D0001C21074802F0B0F8044605801C20FFF7B4
:1045E000E5FEA0700020E070204602F0ABF870BD40
:1045F00003700000FEB510460D4602F079F8012860
:104600007ED12878002878D10E2332221C214948F7
:1046100002F092F80446002020700B2060700246E1
:1046200045A1A01C01F0CEFF204602F08BF80A2322
:1046300032221C213F4802F07FF8044601202070FE
:104640000720607002463FA1A01C01F0BBFF20467E
:1046500002F078F80B2332221C21364802F06CF865
:1046600004460620207008266670324637A1A01C3A
:1046700001F0A8FF204602F065F8082332221C2131
:104680002C4802F059F805270770044647703A464F
:1046900031A1801C01F096FF204602F053F8082358
:1046A00032221C21234802F047F8044604202070DF
:1046B00067703A462AA1A01C01F084FF204602F050
:1046C00041F80A2332221C211A4802F035F8044628
:1046D0000670072060700120A070D221684601801A
:1046E0000B21C90141807101818006226946E01CCD
:1046F00001F068FF204602F025F80123322200E095
:1047000007E01146900202F017F82978017002F0D4
:1047100019F80020FEBD00207047FEB51C46089B1E
:104720000226114D6F4668C71346224600F07DFCF5
:10473000FEBD0000027000004469616C6F67205389
:10474000656D69004441313435387800123456FFC4
:10475000FE9ABCDE00000000782E792E7A00000060
:1047600076332E313000000034730020F6480021EB
:10477000017441618161C160F44A017711651421BE
:1047800001707047F048002101744161C1607047B9
:1047900010B5012332223621ED4801F0CDFF002172
:1047A000017001F0CFFF10BD70B505463621102312
:1047B0003222880201F0C0FF0446E348001F058052
:1047C00025803620FFF7F2FDA070002161602046B1
:1047D000A16001F0B7FF70BD10B50446DD480423A9
:1047E0000288DB483621401E01F0A6FFD649091F8A
:1047F00009880180847001F0A5FF10BD10B5D24C6E
:104800002078032801D1FDF735FF14202070002007
:1048100001F0A1FA10BDFEB5064600200124640493
:104820000090019003460246014602906512304610
:10483000FDF7CAFEFDF739FEC74980B2401806D021
:104840002D210902401A02D0012800D184042946F2
:104850002046FDF741FDFEBDF8B50446BA480326E3
:10486000017A36020906090FA171017A08230907A6
:10487000090FE171018909040D0F257001890905EE
:10488000090F617082681202120FA270826812030F
:10489000120FE2708268120F2271806832460001A6
:1048A000000F6071012000902846FDF7FCFA0025FA
:1048B0000095E179A07907233246FDF7F4FA0095D7
:1048C000E178A07806233246FDF7EDFA009561798C
:1048D000207905230022FDF7E6FAF8BD3EB5AA21AE
:1048E0006A46994C11722178062013290FD110467F
:1048F000FFF7B2FF6846FFF78EFF6168012202A84A
:10490000891CFDF7ECFD40B2012800D10220C0B2A5
:104910003EBD10B5012001F01EFA8B4C2078C00678
:1049200001D4012000E01020FFF756FF0020207482
:104930006061A061E060207710BDF8B50F460021EE
:10494000060E814C35463960142E17D2257080B280
:104950006060002D01D0012D07D180492806084351
:104960006160002102F04CF938602078122801D0F3
:10497000132803D1606802280BD86074112E26D04A
:104980000EDC022E20D006DC002E1DD0012E13D10D
:104990001AE0112022E0032E16D0102E0CD116E0C2
:1049A000FD2E2CD004DC122E0ED0132E04D10BE0E1
:1049B000FE2E16D0FF2E0CD00820FFF70DFF14207E
:1049C000207000203860F8BDFFF7A3FFF8BD082075
:1049D00004E0FFF713FFFFF7D5FE0320FFF7FCFE0F
:1049E000F8BD207F002801D0042001E0FFF776FF0A
:1049F000FFF7F2FEFFF702FFFFF7C4FEF8BD5248D3
:104A000001212030017256488078FFF766FCF8BD1E
:104A100010B504464F48042302884D483621801EB5
:104A200001F08AFE046001F08DFE10BDFEB5464D1A
:104A30000224287800280AD0012808D0022801D0B2
:104A400003282ED008242046FFF7C6FEFEBD434EA5
:104A500000063043002102F0D3F807468004020C20
:104A6000297CFF208B18013083422AD8801A374ACC
:104A7000401A121F891880B25432101805E00A68D3
:104A800004C02A7C121F2A74091F2A7C002AF6D12E
:104A9000287800210006304302F0B2F8B84210D066
:104AA0002EE00320696800060843A96802F0A8F810
:104AB00006468004070C287CC119FF200130814282
:104AC00001D90724BFE76846FFF7C6FE6846FFF72F
:104AD000A2FE68682A7CC1191C48FDF700FD074644
:104AE0002878696800060843A96802F089F8297CDB
:104AF000B94201D1B04203D10624FFF789FFA2E7F2
:104B0000FFF786FFFFF77AFEFFF73CFE9BE770B5E5
:104B100002460020160BC04336030C0B090500D0DB
:104B2000641C002C01D000250BE00124002520216D
:104B30003046FDF7A6FC012109037618002802D1B2
:104B40006D1CA542F3D370BD78820020A090002098
:104B500008D800002E820020F03DFFFFEC910020DD
:104B6000508200200021FF2802D0401CC0B27047B4
:104B700008467047FF2802D0FF2905D006E0FF292C
:104B800008D0002906D001E0002801D0884201D9D0
:104B9000022070470120704710B5AF4C034600203B
:104BA0002478C043132C02D11846FDF712FC10BD27
:104BB000F7B598B000271A980C463E46402805D312
:104BC0002078702802D16078512802D012201BB0C2
:104BD000F0BD6568A0492846403008621F210C22BC
:104BE00009036846FFF7D8FF0C2847D168460078CC
:104BF000702803D168464078522801D01420E6E797
:104C00000198119002981290002D03D01199401A2A
:104C1000A84201D21320DAE7684640221090FFF73D
:104C2000BBFF40282AD16846C07814906846817836
:104C300003A8169020460C301590AA2907D1684683
:104C40000078702803D168464078512803D00127A6
:104C5000002014900BE010221699159801F0ACFC7E
:104C6000002804D1E0690799884200D10227402238
:104C700012991098FFF790FF402801D01620A6E760
:104C80006846C078139068468078AA2807D168469D
:104C90000078702803D168464078512803D0012657
:104CA000002013900BE010221699159801F084FC57
:104CB000002804D1E0690799884200D1022618989B
:104CC000002801D0022807D9012F11D0012E1CD0B5
:104CD00013991498FFF74EFF1590FF224021684664
:104CE00001F094FF1598022815D0022F24D004E07B
:104CF000FF224021684601F089FF5749119848601A
:104D0000002E1BD0022E19D00EE0FF224021684653
:104D100001F07CFF01E0022E0ED04F49129848604E
:104D2000002F07D0022F05D001264B4F38781328CB
:104D300009D03CE0149802E0152048E71398FFF7EB
:104D400011FF0646F1E74035A9B27868FFF7DFFEAC
:104D500000282CD16846C67060680190A068029057
:104D600020460C300EC8A069069003A80EC0E0696A
:104D70000790217868460170617841702020015DBC
:104D800008A801703878132811D11A9A7968403A26
:104D90002046154640304031FDF7A1FBA84206D120
:104DA000402279681098FDF79AFB402801D0062030
:104DB0000DE700200BE77CB5274C02260020274A90
:104DC000616904E0237F155C6B402377401C8142BE
:104DD000F8D82078122801D0132801D0082636E010
:104DE0006846FFF739FD6846FFF715FD6269002A3E
:104DF00002D0A069002817D0A169206A8A18431C34
:104E00009A421ED8824201D9401A606160682546E4
:104E1000411812486269FDF762FB6969814210D14D
:104E2000A8694018A8610DE0607C0C49FFF7C0FE3E
:104E3000002801D086B205E06269A1698918A161E4
:104E400000E0062600206061A069FFF7E1FDF0B2F6
:104E5000FFF7C2FC7CBD000078820020F0900020AB
:104E600010B510460C4601F043FC012809D132224E
:104E700001231146900201F05FFC2178017001F0DE
:104E800061FC002010BD70B5544C0D4620781428EC
:104E900047D2A978002942D0E168002938D0C0065D
:104EA0001DD4207CEA788118502933D84C49401809
:104EB000291D01F087FB207CE9784018C0B22074DE
:104EC000E168814201D1FFF7B1FD207CE1688842B1
:104ED00002D90520FFF780FC2078C0061FD5EA78AC
:104EE0006069FF2381180133994215D83D49401864
:104EF000291D01F067FBE978606940186061E1688D
:104F0000814201D1FFF757FFE1686069884206D905
:104F1000052002E00720DDE70720FFF75DFC002009
:104F200070BD0820F9E708B58878002806D04868E1
:104F30006946FFF702FD0098FFF76AFD002008BDF3
:104F400010B5887800280ED0244A496891601078FE
:104F500002280AD0032808D0122804D0132802D02F
:104F60000820FFF739FC002010BD526800061043EE
:104F700001F046FEFFF74CFDF5E770B588780D4669
:104F800000281DD0A888002805D0144C2178CA0616
:104F900003D4820701D005200EE0142910D2C906DF
:104FA00005D4502807D8FFF7EDFBA88807E0FF21BC
:104FB0000131884203D90720FFF70EFC00E0E060D2
:104FC000002070BDFEB51C46089B0526064D6F46A9
:104FD00068C71346224600F028F8FEBD78820020FC
:104FE000A0900020F090002044730020FFB583B013
:104FF0001E4F002401AEA00000963D5803A80FC824
:10500000A84700280ED0641C052CF4D3174C241F8D
:105010002068002803D003AD0FCD2468A0470020EE
:1050200007B0F0BD68460079FAE7F8B5089C9C46E1
:10503000079D0346002C16D0641E14D40C4FE600C6
:10504000AE5B9E4201D0BE420BD1E3005B195C68AF
:10505000002C08D013466246A0470699087000202D
:10506000F8BD641EEBD50120F8BD00007073002070
:10507000FFFF000010B5052000070089000608D5D5
:1050800001208007006B000403D401F0B3FAC007CD
:1050900001D0002010BD012010BD704770470000F6
:1050A00070B50D460446FFF7E5FF002807D07948A4
:1050B0002A46201880B2322101F076FC70BDFBF741
:1050C0006CFC7448322204231146801E01F034FB2C
:1050D0004580047001F036FB70BDF8B596466E4A07
:1050E0009C468318C8266D4F08220024069D002B7D
:1050F0002BD0012B08D0022B0CD06749C91E4118B8
:105100000A2939D30120F8BD6346724600F095F8AC
:10511000287047E00878431E092B12D81A468300EE
:105120005F481B1FC6585F4B9E423AD10346920010
:1051300028339B5883504A8808781146FFF7B0FF00
:105140002FE03E8058484280FEE74B88002B06D077
:105150005648834207D33E8053484280FEE73E8054
:1051600051484280FEE708784A491A46401880B202
:10517000322101F019FC14E04749891E4018C0B2E1
:10518000411E09290DD88200454811188039C86F81
:10519000002806D0CC674249283151188039CC67A5
:1051A00080472C700020F8BD70B50A460146C82023
:1051B0003A4B08243C4D002905D03C4EB14205D362
:1051C00018806C80FEE718806C80FEE7344B00206E
:1051D00084001C59002C04D0401C0A28F8DB002055
:1051E00070BD84001A51401C0406240EF7D02046DE
:1051F000FFF756FF204670BD70B50446401E0928D3
:105200001AD82748A1000D18803DE86F002813D058
:10521000274EB04210D01F483221201880B201F032
:1052200097FA1C48322204231146401EEE6701F013
:1052300083FA047001F086FA70BD10B508780C4648
:10524000411E09291FD882001548121F8258184B89
:105250009A4205D10022890042502830425010E085
:10526000890040580F4988420BD13222042311464D
:10527000084801F061FA217801706188418001F0ED
:1052800061FA002010BD0549C820088006490820A1
:105290004880FEE703C80000FF37FFFF00310050E1
:1052A000A48200209D500020003300503075000083
:1052B0009B50002010B5372110233222880201F0C4
:1052C0003BFA0021144A03E0372B0DD0491CC9B228
:1052D0001C234B43D35CFF2BF6D10021416081603E
:1052E000818101F02FFA10BD1C2359438918097AD6
:1052F0000170F2E770B505460423322237210748D2
:1053000001F01AFA044605803720FFF74FF8A07025
:10531000204601F017FA70BD9473002002DC0000F3
:1053200010B510460C4601F0E3F9012809D13222EC
:1053300001231146900201F0FFF92178017001F07C
:1053400001FA002010BD00207047FEB51C46089BE6
:105350000226044D6F4668C713462246FFF765FED6
:10536000FEBD00008473002038B500F069FD012007
:1053700003252D02009008232A4603210220FCF772
:1053800092FD002407232A46214602200094FCF7C0
:105390008AFD06232A46092102200094FCF783FD9A
:1053A00005230022042102200094FCF77CFD38BD77
:1053B000F8B505252D07288A022188432882A88A66
:1053C0000007FCD5FB484188FF2601363143418068
:1053D000FBF772FDFFF7C8FF00F086FD00242346AF
:1053E0003246214601200094FCF75DFD03273F0271
:1053F000022100233A4608460094FCF754FD00229F
:105400000F23114610460094FCF74DFD00233A4649
:10541000022101200094FCF746FD002332460321BF
:1054200001200094FCF73FFD00233246022118467C
:105430000094FCF738FD00233246032118460094FF
:10544000FCF731FD00F051FD688A20210843688295
:1054500000F0B8FDD8A000F0F1FCF8BDDB4810B5B5
:105460000146096C447B02230022491C002C14D005
:10547000012C11D1016405290EDB0264017B022994
:1054800015D00373416C491C4164282904DB426434
:105490004273CF490420087010BD0373CD4B0164E3
:1054A0009942F9DB026401214264417310BD027329
:1054B000E8E7C64810B50146C97B847B491CCAB2DF
:1054C00002230021002C12D0012C0FD10173C273D2
:1054D000052A0BD3C1738173826CFF24521C69347B
:1054E0008264A24202DB8164B948037010BD037379
:1054F000C273052AFAD3C1730121817310BDB34869
:1055000010B55430C1785438012903D0022900D194
:10551000017310BDC16C491CC1640A29F9DB00216B
:10552000C164027C002A02D001740321F0E7012249
:10553000027401730020FEF7D0FEFEF7A5FE10BD39
:1055400010B5A2480321017300210174C164A04970
:10555000052008700020FEF7C0FEFEF795FE10BD86
:1055600010B59A48016D491C01650A290BDB002121
:105570000165427C002A07D0417401730020FEF7C8
:10558000ACFEFEF781FE10BD01214174017310BD18
:1055900010B58E480021016541748D4908200870BE
:1055A0000020FEF79AFEFEF76FFE10BD874800212F
:1055B0008173C1738164864906200870704710B5F5
:1055C000834C2078032811D0834909880A290DD9F2
:1055D00008280BD003210120FCF778FC002805D017
:1055E00003202070794900200864487310BD784872
:1055F0000178032901D104210170704710B5734867
:10560000017BC07A014303D00020FBF7B9F910BD3C
:105610000120FAE7F8B56E4F0025387802266B4C6A
:10562000030001F06BF8094B06080B162D313436D8
:105630004B00257314E0032020733FE00321012079
:10564000FCF744FC00280DD00120E072FFF706FFB4
:1056500034E003210120FCF739FC002802D0267336
:10566000E5722BE003202073E5723E705B4E022151
:1056700035700120FCF703FC307800F0CBFC1DE016
:10568000E572FFF73CFF19E0FFF713FF16E0267302
:1056900014E0A07C401CC0B2A074C82803D2E572FC
:1056A000FFF75EFF0AE0A574012038700020FEF7C6
:1056B00014FEFEF7E9FD454854300570FFF79EFFE4
:1056C000207B00F0D7FBE07A00F0FCFCF8BDF8B5D9
:1056D00043490520FFF768FD3C4E3D4D7083287817
:1056E0000127002405280ED000210120FCF7EEFB45
:1056F000002817D0F4633463706B401C7063022879
:1057000001DB7463B471B079F179884205D0002867
:1057100002D0317A491C3172F0712C4E5436002877
:1057200027D075E07463306B401C3063022803DBC4
:105730003463B7710A20B063F06B401CF0636428D7
:10574000E1DBF463B07A0028DDD1B772322000F0DB
:10575000CFFF30712978022901D0042904D105280E
:1057600002D0FFF723FFCEE70629CCD10220287014
:10577000C9E71648816B00294AD0491E816347D189
:10578000807A0028114801D084723FE0017A41728A
:10579000012902D0022932D038E02978062935D0F3
:1057A000082933D001291DD0032924D0FFF707FF92
:1057B0002CE00000200000507065726970685F691D
:1057C0006E697420656E640D0A0000002090002050
:1057D00080770020B8240000827700208780002096
:1057E000CF5600200220287037700020FBF7C8F841
:1057F00000F04CFA0AE0C461FFF7F9FE06E02F70F2
:105800000020FEF76AFDFEF73FFD34706D4804721C
:10581000FFF700FF6B48C169491CC161142901DB16
:10582000C461C770C1690091C90700D10770052123
:10583000009801F0F1F9002901D1624847700A216E
:10584000009801F0E9F9002901D15E4887705D48B0
:105850000078002836D05B48032104700020FCF754
:1058600035FB0028574842D00462416A491C416216
:10587000022911DB4462F4703079002822D034719F
:10588000307800283CD00220287000F0FFF97078B2
:10589000002801D0072028703079002812D002217A
:1058A0000020FCF713FB002846482DD08462C16A13
:1058B000491CC162022905DBC462F078022801D0CC
:1058C0000220F0703F484078002844D03D484470A2
:1058D00000F046FC3B49088300F053FC3A4908803D
:1058E0002978052937D03278012A1BD033E0446269
:1058F000016A491C01620229CEDB04623771CEE7DE
:105900002F70FEF7C1FCC2E7C462816A491C816244
:105910000229D7DB8462F0780128D3D0F770FFF733
:105920000FFECFE70A280ED8082914D02548C07CDE
:10593000042803D02349401CC8740CE0FFF728FE5C
:105940002048C47407E01F480829C47403D102200A
:10595000287000F09BF91B488178002930D08470B2
:10596000287805282CD0322000F0C2FE1549087195
:105970004A79904224D005280ED003280CD0042860
:105980000AD0062808D0052A0DD0032A0BD0042AF5
:1059900009D0062A07D010E02878022801D1072074
:1059A0002870777009E000F026F92878072801D1DF
:1059B0000220287000F06AF9747002480179417180
:1059C000F8BD0000209000208277002010B5964C92
:1059D00060882188884213D00723322237219348D8
:1059E00000F0AAFE21886180914909880180082180
:1059F00041800121818021468978817100F0A2FED9
:105A0000322000F075FE052805D18A496420FFF791
:105A1000CBFB8949488110BD70B5884C8849208AE4
:105A2000884249D0002847D0FAF70FFEE0690F25D9
:105A3000C100081A6D0341190722E01DA161FCF79E
:105A4000C8FC7D4EF071E069401CE061208A401E78
:105A50000004000C20820AD1E061E0812021284668
:105A6000FCF70FFD1D2020210003FCF70AFDFAF7CB
:105A7000C5FD0D23322237216C4800F05DFE05463E
:105A80006B48E11D00882880172068800720A880C7
:105A90000246A81D00F096FD284600F053FE322075
:105AA00000F026FE052807D166493220FFF77CFB6F
:105AB000308165A000F0C2F970BDFEB58A880E463F
:105AC000102A5BD85C48B11D0C3000F07BFD5A4CAD
:105AD000594D0C342078522851D042285DD04C28A2
:105AE00078D054284AD160783D2847D1B088102812
:105AF00044D1A0780A223038E17850433038081871
:105B0000C0B22870864620796179303850433038E9
:105B10000818C0B268708446A079E17930385043E3
:105B200030380818C2B2AA70207A0A233038617A55
:105B3000584330380818C3B2EB70A17A0A273039BD
:105B4000E67A794330397018C7B22F71267B0A2163
:105B5000303E607B4E43303E8019C6B26E71E07BB2
:105B6000A47B303C4C43303C0019C0B2A871029079
:105B7000614600970196704600F0FFF9FEBD60781F
:105B80004428FBD1B0880228F8D12E493220FFF7F3
:105B90000BFB288100F075FAFEBD607854280DD00B
:105BA0005028F9D1B0880228F6D168890028F3D0AE
:105BB000C0B2FFF721FB00206881FEBDB08802283B
:105BC000FBD11949652048801A490A20FFF7ECFAF1
:105BD000F2E7FFE76078542807D05028EDD1B0886D
:105BE0000228EAD1FFF703FDFEBDB0880228FBD1F1
